{
  "contractName": "LeadTimelock",
  "abi": [
    {
      "inputs": [
        {
          "internalType": "address",
          "name": "token",
          "type": "address"
        },
        {
          "internalType": "address[]",
          "name": "_beneficiary",
          "type": "address[]"
        },
        {
          "internalType": "uint256[]",
          "name": "_percentages",
          "type": "uint256[]"
        },
        {
          "internalType": "uint256[]",
          "name": "_schedules",
          "type": "uint256[]"
        }
      ],
      "stateMutability": "nonpayable",
      "type": "constructor"
    },
    {
      "anonymous": false,
      "inputs": [
        {
          "indexed": false,
          "internalType": "address",
          "name": "executor",
          "type": "address"
        },
        {
          "indexed": true,
          "internalType": "uint256",
          "name": "round",
          "type": "uint256"
        }
      ],
      "name": "Distributed",
      "type": "event"
    },
    {
      "inputs": [
        {
          "internalType": "uint256",
          "name": "",
          "type": "uint256"
        }
      ],
      "name": "beneficiaries",
      "outputs": [
        {
          "internalType": "address",
          "name": "",
          "type": "address"
        }
      ],
      "stateMutability": "view",
      "type": "function",
      "constant": true
    },
    {
      "inputs": [],
      "name": "lead",
      "outputs": [
        {
          "internalType": "address",
          "name": "",
          "type": "address"
        }
      ],
      "stateMutability": "view",
      "type": "function",
      "constant": true
    },
    {
      "inputs": [
        {
          "internalType": "uint256",
          "name": "",
          "type": "uint256"
        }
      ],
      "name": "scheduleList",
      "outputs": [
        {
          "internalType": "uint256",
          "name": "",
          "type": "uint256"
        }
      ],
      "stateMutability": "view",
      "type": "function",
      "constant": true
    },
    {
      "inputs": [],
      "name": "getSchedules",
      "outputs": [
        {
          "internalType": "uint256[]",
          "name": "schedule",
          "type": "uint256[]"
        }
      ],
      "stateMutability": "view",
      "type": "function",
      "constant": true
    },
    {
      "inputs": [],
      "name": "currentSchedule",
      "outputs": [
        {
          "internalType": "uint256",
          "name": "schedule",
          "type": "uint256"
        }
      ],
      "stateMutability": "view",
      "type": "function",
      "constant": true
    },
    {
      "inputs": [
        {
          "internalType": "address",
          "name": "_beneficiary",
          "type": "address"
        }
      ],
      "name": "getPercentage",
      "outputs": [
        {
          "internalType": "uint256",
          "name": "approximated",
          "type": "uint256"
        },
        {
          "internalType": "uint256",
          "name": "actual",
          "type": "uint256"
        }
      ],
      "stateMutability": "view",
      "type": "function",
      "constant": true
    },
    {
      "inputs": [],
      "name": "getBeneficiaries",
      "outputs": [
        {
          "internalType": "address[]",
          "name": "beneficiary",
          "type": "address[]"
        }
      ],
      "stateMutability": "view",
      "type": "function",
      "constant": true
    },
    {
      "inputs": [],
      "name": "nextScheduleTime",
      "outputs": [
        {
          "internalType": "uint256",
          "name": "secondsLeft",
          "type": "uint256"
        }
      ],
      "stateMutability": "view",
      "type": "function",
      "constant": true
    },
    {
      "inputs": [],
      "name": "endingTime",
      "outputs": [
        {
          "internalType": "uint256",
          "name": "secondsLeft",
          "type": "uint256"
        }
      ],
      "stateMutability": "view",
      "type": "function",
      "constant": true
    },
    {
      "inputs": [],
      "name": "distributePayment",
      "outputs": [],
      "stateMutability": "nonpayable",
      "type": "function"
    }
  ],
  "bytecode": "0x608060405260008060006101000a81548160ff021916908360ff16021790555060008060016101000a81548160ff021916908360ff1602179055503480156200004757600080fd5b506040516200139438038062001394833981810160405260808110156200006d57600080fd5b8101908080519060200190929190805160405193929190846401000000008211156200009857600080fd5b83820191506020820185811115620000af57600080fd5b8251866020820283011164010000000082111715620000cd57600080fd5b8083526020830192505050908051906020019060200280838360005b8381101562000106578082015181840152602081019050620000e9565b50505050905001604052602001805160405193929190846401000000008211156200013057600080fd5b838201915060208201858111156200014757600080fd5b82518660208202830111640100000000821117156200016557600080fd5b8083526020830192505050908051906020019060200280838360005b838110156200019e57808201518184015260208101905062000181565b5050505090500160405260200180516040519392919084640100000000821115620001c857600080fd5b83820191506020820185811115620001df57600080fd5b8251866020820283011164010000000082111715620001fd57600080fd5b8083526020830192505050908051906020019060200280838360005b838110156200023657808201518184015260208101905062000219565b5050505090500160405250505083600060026101000a81548173ffffffffffffffffffffffffffffffffffffffff021916908373ffffffffffffffffffffffffffffffffffffffff16021790555062000297838383620002a160201b60201c565b5050505062000568565b8151835114620002fd576040517f08c379a000000000000000000000000000000000000000000000000000000000815260040180806020018281038252603b81526020018062001359603b913960400191505060405180910390fd5b600080600090505b8451811015620004305760018582815181106200031e57fe5b60200260200101519080600181540180825580915050600190039060005260206000200160009091909190916101000a81548173ffffffffffffffffffffffffffffffffffffffff021916908373ffffffffffffffffffffffffffffffffffffffff1602179055508381815181106200039357fe5b602002602001015160046000878481518110620003ac57fe5b602002602001015173ffffffffffffffffffffffffffffffffffffffff1673ffffffffffffffffffffffffffffffffffffffff16815260200190815260200160002081905550620004208482815181106200040357fe5b6020026020010151836200054d60201b62000d6c1790919060201c565b9150808060010191505062000305565b50662386f26fc100008114620004ae576040517f08c379a000000000000000000000000000000000000000000000000000000000815260040180806020018281038252601e8152602001807f50657263656e7461676573206d7573742073756d20757020746f20313030000081525060200191505060405180910390fd5b60008090505b82518160ff16101562000546576002838260ff1681518110620004d357fe5b60200260200101519080600181540180825580915050600190039060005260206000200160009091909190915055828160ff16815181106200051157fe5b60200260200101514201600360008360ff1660ff168152602001908152602001600020819055508080600101915050620004b4565b5050505050565b60008183019050828110156200056257600080fd5b92915050565b610de180620005786000396000f3fe608060405234801561001057600080fd5b506004361061009e5760003560e01c8063913b722c11610066578063913b722c146101e7578063a88ea61614610246578063ebb049cd14610264578063efeb5e581461026e578063fd7e1083146102dc5761009e565b80633dd05a99146100a35780633ebbc9c41461010257806346bb0a16146101615780636c47a6c3146101ab5780638c3980b0146101c9575b600080fd5b6100ab61031e565b6040518080602001828103825283818151815260200191508051906020019060200280838360005b838110156100ee5780820151818401526020810190506100d3565b505050509050019250505060405180910390f35b6101446004803603602081101561011857600080fd5b81019080803573ffffffffffffffffffffffffffffffffffffffff169060200190929190505050610376565b604051808381526020018281526020019250505060405180910390f35b610169610417565b604051808273ffffffffffffffffffffffffffffffffffffffff1673ffffffffffffffffffffffffffffffffffffffff16815260200191505060405180910390f35b6101b361043d565b6040518082815260200191505060405180910390f35b6101d16104e8565b6040518082815260200191505060405180910390f35b6101ef61057d565b6040518080602001828103825283818151815260200191508051906020019060200280838360005b83811015610232578082015181840152602081019050610217565b505050509050019250505060405180910390f35b61024e61060b565b6040518082815260200191505060405180910390f35b61026c61063c565b005b61029a6004803603602081101561028457600080fd5b8101908080359060200190929190505050610b46565b604051808273ffffffffffffffffffffffffffffffffffffffff1673ffffffffffffffffffffffffffffffffffffffff16815260200191505060405180910390f35b610308600480360360208110156102f257600080fd5b8101908080359060200190929190505050610b82565b6040518082815260200191505060405180910390f35b6060600280548060200260200160405190810160405280929190818152602001828054801561036c57602002820191906000526020600020905b815481526020019060010190808311610358575b5050505050905090565b600080655af3107a4000600460008573ffffffffffffffffffffffffffffffffffffffff1673ffffffffffffffffffffffffffffffffffffffff16815260200190815260200160002054816103c757fe5b049150600460008473ffffffffffffffffffffffffffffffffffffffff1673ffffffffffffffffffffffffffffffffffffffff168152602001908152602001600020549050818191509150915091565b600060029054906101000a900473ffffffffffffffffffffffffffffffffffffffff1681565b60008060028054905090506000600360006001840360ff1660ff1681526020019081526020016000205490504281116104de576040517f08c379a000000000000000000000000000000000000000000000000000000000815260040180806020018281038252601b8152602001807f436f6e747261637420686173206265656e20636f6d706c65746564000000000081525060200191505060405180910390fd5b4281039250505090565b600080600360008060019054906101000a900460ff1660ff1660ff1681526020019081526020016000205490506000428203905042821015610575576040517f08c379a0000000000000000000000000000000000000000000000000000000008152600401808060200182810382526025815260200180610d876025913960400191505060405180910390fd5b809250505090565b6060600180548060200260200160405190810160405280929190818152602001828054801561060157602002820191906000526020600020905b8160009054906101000a900473ffffffffffffffffffffffffffffffffffffffff1673ffffffffffffffffffffffffffffffffffffffff16815260200190600101908083116105b7575b5050505050905090565b60006002600060019054906101000a900460ff1660ff168154811061062c57fe5b9060005260206000200154905090565b600360008060019054906101000a900460ff1660ff1660ff168152602001908152602001600020544210156106d9576040517f08c379a00000000000000000000000000000000000000000000000000000000081526004018080602001828103825260198152602001807f5265616c656173652074696d65206e6f7420726561636865640000000000000081525060200191505060405180910390fd5b60008090505b60018054905081101561083b576107b461072f600183815481106106ff57fe5b9060005260206000200160009054906101000a900473ffffffffffffffffffffffffffffffffffffffff16610ba3565b600560006001858154811061074057fe5b9060005260206000200160009054906101000a900473ffffffffffffffffffffffffffffffffffffffff1673ffffffffffffffffffffffffffffffffffffffff1673ffffffffffffffffffffffffffffffffffffffff16815260200190815260200160002054610d6c90919063ffffffff16565b60056000600184815481106107c557fe5b9060005260206000200160009054906101000a900473ffffffffffffffffffffffffffffffffffffffff1673ffffffffffffffffffffffffffffffffffffffff1673ffffffffffffffffffffffffffffffffffffffff1681526020019081526020016000208190555080806001019150506106df565b5060008090505b600180549050811015610a6a57600060029054906101000a900473ffffffffffffffffffffffffffffffffffffffff1673ffffffffffffffffffffffffffffffffffffffff1663a9059cbb6001838154811061089a57fe5b9060005260206000200160009054906101000a900473ffffffffffffffffffffffffffffffffffffffff1660056000600186815481106108d657fe5b9060005260206000200160009054906101000a900473ffffffffffffffffffffffffffffffffffffffff1673ffffffffffffffffffffffffffffffffffffffff1673ffffffffffffffffffffffffffffffffffffffff168152602001908152602001600020546040518363ffffffff1660e01b8152600401808373ffffffffffffffffffffffffffffffffffffffff1673ffffffffffffffffffffffffffffffffffffffff16815260200182815260200192505050602060405180830381600087803b1580156109a557600080fd5b505af11580156109b9573d6000803e3d6000fd5b505050506040513d60208110156109cf57600080fd5b810190808051906020019092919050505050600060056000600184815481106109f457fe5b9060005260206000200160009054906101000a900473ffffffffffffffffffffffffffffffffffffffff1673ffffffffffffffffffffffffffffffffffffffff1673ffffffffffffffffffffffffffffffffffffffff168152602001908152602001600020819055508080600101915050610842565b506000600181819054906101000a900460ff168092919060010191906101000a81548160ff021916908360ff1602179055505060008081819054906101000a900460ff168092919060010191906101000a81548160ff021916908360ff16021790555050600060019054906101000a900460ff1660ff167fb649c98f58055c520df0dcb5709eff2e931217ff2fb1e21376130d31bbb1c0af33604051808273ffffffffffffffffffffffffffffffffffffffff1673ffffffffffffffffffffffffffffffffffffffff16815260200191505060405180910390a2565b60018181548110610b5357fe5b906000526020600020016000915054906101000a900473ffffffffffffffffffffffffffffffffffffffff1681565b60028181548110610b8f57fe5b906000526020600020016000915090505481565b600080600060029054906101000a900473ffffffffffffffffffffffffffffffffffffffff1673ffffffffffffffffffffffffffffffffffffffff166370a08231306040518263ffffffff1660e01b8152600401808273ffffffffffffffffffffffffffffffffffffffff1673ffffffffffffffffffffffffffffffffffffffff16815260200191505060206040518083038186803b158015610c4557600080fd5b505afa158015610c59573d6000803e3d6000fd5b505050506040513d6020811015610c6f57600080fd5b8101908080519060200190929190505050905060008111610cf8576040517f08c379a000000000000000000000000000000000000000000000000000000000815260040180806020018281038252600a8152602001807f456d70747920706f6f6c0000000000000000000000000000000000000000000081525060200191505060405180910390fd5b662386f26fc100006000809054906101000a900460ff1660ff16600280549050030281600460008673ffffffffffffffffffffffffffffffffffffffff1673ffffffffffffffffffffffffffffffffffffffff168152602001908152602001600020540281610d6357fe5b04915050919050565b6000818301905082811015610d8057600080fd5b9291505056fe64697374726962757465207061796d656e7420666f722070726576696f757320726f756e64a2646970667358221220bfd78a70a4a745b1ea60a44047afedf60310f283c1feeb60985981bd67fb555864736f6c6343000606003342656e656669636961727920616e642070657263656e7461676520617272617973206d7573742068617665207468652073616d65206c656e677468",
  "source": "//\"SPDX-License-Identifier: UNLICENSED\"\r\npragma solidity 0.6.6;\r\n\r\ninterface IERC20 {\r\n    function transfer(address to, uint tokens) external returns (bool success);\r\n    function transferFrom(address from, address to, uint tokens) external returns (bool success);\r\n    function balanceOf(address tokenOwner) external view returns (uint balance);\r\n    function approve(address spender, uint tokens) external returns (bool success);\r\n    function allowance(address tokenOwner, address spender) external view returns (uint remaining);\r\n    function totalSupply() external view returns (uint);\r\n    event Transfer(address indexed from, address indexed to, uint tokens);\r\n    event Approval(address indexed tokenOwner, address indexed spender, uint tokens);\r\n}\r\n\r\nlibrary SafeMath {\r\n    function add(uint a, uint b) internal pure returns (uint c) {\r\n        c = a + b;\r\n        require(c >= a);\r\n    }\r\n\r\n    function sub(uint a, uint b) internal pure returns (uint c) {\r\n        require(b <= a);\r\n        c = a - b;\r\n    }\r\n\r\n    function mul(uint a, uint b) internal pure returns (uint c) {\r\n        c = a * b;\r\n        require(a == 0 || c / a == b);\r\n    }\r\n\r\n    function div(uint a, uint b) internal pure returns (uint c) {\r\n        require(b > 0);\r\n        c = a / b;\r\n    }\r\n}\r\n\r\ncontract LeadTimelock {\r\n    using SafeMath for uint;\r\n\r\n    uint8 private nextSubtract = 0;\r\n    uint8 private nextScheduleId = 0;\r\n    address public lead;\r\n    address[] public beneficiaries; \r\n    uint[] public scheduleList; \r\n\r\n    mapping(uint8 => uint) private schedules;\r\n    mapping(address => uint) private percentages;\r\n    mapping(address => uint) private proportions;\r\n    \r\n    event Distributed(address executor, uint indexed round);\r\n    \r\n    constructor(address token, address[] memory _beneficiary, uint[] memory _percentages, uint[] memory _schedules) public {\r\n        lead = token;\r\n        _addVesting(_beneficiary, _percentages, _schedules);\r\n    }\r\n    \r\n    function _addVesting(address[] memory _beneficiary, uint[] memory _percentages, uint[] memory _schedules) internal {\r\n        require(_beneficiary.length == _percentages.length, 'Beneficiary and percentage arrays must have the same length');\r\n        uint totalPercentages;\r\n        for(uint i = 0; i < _beneficiary.length; i++) {\r\n            beneficiaries.push(_beneficiary[i]);\r\n            percentages[_beneficiary[i]] = _percentages[i];\r\n            totalPercentages = totalPercentages.add(_percentages[i]);\r\n        }\r\n        require(totalPercentages == 10000000000000000, 'Percentages must sum up to 100');\r\n        for(uint8 i = 0; i < _schedules.length; i++) {\r\n            scheduleList.push(_schedules[i]);\r\n            schedules[i] = now + _schedules[i];\r\n        }\r\n    }\r\n    \r\n    function getSchedules() external view returns(uint[] memory schedule){\r\n        return scheduleList;\r\n    }\r\n    \r\n    function currentSchedule() external view returns(uint schedule){\r\n        return scheduleList[nextScheduleId];\r\n    }\r\n    \r\n    function getPercentage(address _beneficiary) external view returns(uint approximated, uint actual){\r\n        approximated = percentages[_beneficiary] / 100000000000000;\r\n        actual = percentages[_beneficiary];\r\n        return (approximated, actual);\r\n    }\r\n    \r\n    function getBeneficiaries() external view returns(address[] memory beneficiary) {\r\n        return beneficiaries;\r\n    }\r\n    \r\n    function nextScheduleTime() external view returns(uint secondsLeft){\r\n        uint time = schedules[nextScheduleId];\r\n        uint nextTime = time - now;\r\n        if (time < now) {\r\n            revert ('distribute payment for previous round');\r\n        } else {\r\n            return nextTime;\r\n        }\r\n    }\r\n    \r\n    function endingTime() external view returns(uint secondsLeft){\r\n        uint allTime = scheduleList.length;\r\n        uint time = schedules[uint8(allTime) - 1];\r\n        require(time > now, 'Contract has been completed');\r\n        return time - now;\r\n    }\r\n    \r\n    function _calculatePayment(address _beneficiary) private view returns(uint){\r\n        uint balance = IERC20(lead).balanceOf(address(this));\r\n        require(balance > 0, 'Empty pool');\r\n        return (percentages[_beneficiary] * balance) / ((scheduleList.length - nextSubtract) * (10000000000000000));\r\n    }\r\n\r\n    function distributePayment() external {\r\n        require(now >= schedules[nextScheduleId], 'Realease time not reached');\r\n        for (uint i = 0; i < beneficiaries.length; i++) {\r\n            proportions[beneficiaries[i]] = proportions[beneficiaries[i]].add(_calculatePayment(beneficiaries[i]));\r\n        }\r\n        for (uint i = 0; i < beneficiaries.length; i++) {\r\n            IERC20(lead).transfer(beneficiaries[i], proportions[beneficiaries[i]]);\r\n            proportions[beneficiaries[i]] = 0;\r\n        }\r\n        nextScheduleId++; \r\n        nextSubtract++;\r\n        emit Distributed(msg.sender, nextScheduleId);\r\n    }\r\n}\r\n",
  "sourcePath": "C:\\Users\\LENOVO\\Desktop\\THE GRIND\\Blockchain Dev\\gitrepo\\TimeLock\\contracts\\TimeLock.sol",
  "compiler": {
    "name": "solc",
    "version": "0.6.6+commit.6c089d02.Emscripten.clang"
  },
  "schemaVersion": "3.0.23",
  "updatedAt": "2020-10-25T21:32:26.254Z",
  "networkType": "ethereum",
  "devdoc": {
    "methods": {}
  },
  "userdoc": {
    "methods": {}
  }
}