{
  "contractName": "TimeLock",
  "abi": [
    {
      "inputs": [
        {
          "internalType": "address[]",
          "name": "_beneficiary",
          "type": "address[]"
        },
        {
          "internalType": "uint256[]",
          "name": "_percentages",
          "type": "uint256[]"
        },
        {
          "internalType": "uint256[]",
          "name": "_schedules",
          "type": "uint256[]"
        }
      ],
      "payable": false,
      "stateMutability": "nonpayable",
      "type": "constructor"
    },
    {
      "anonymous": false,
      "inputs": [
        {
          "indexed": false,
          "internalType": "address",
          "name": "token",
          "type": "address"
        },
        {
          "indexed": false,
          "internalType": "address",
          "name": "executor",
          "type": "address"
        },
        {
          "indexed": false,
          "internalType": "uint256",
          "name": "round",
          "type": "uint256"
        }
      ],
      "name": "Distributed",
      "type": "event"
    },
    {
      "anonymous": false,
      "inputs": [
        {
          "indexed": false,
          "internalType": "address",
          "name": "newVestingContract",
          "type": "address"
        },
        {
          "indexed": true,
          "internalType": "uint256",
          "name": "timeCreated",
          "type": "uint256"
        }
      ],
      "name": "NewVesting",
      "type": "event"
    },
    {
      "anonymous": false,
      "inputs": [
        {
          "indexed": true,
          "internalType": "address",
          "name": "_from",
          "type": "address"
        },
        {
          "indexed": true,
          "internalType": "address",
          "name": "_to",
          "type": "address"
        }
      ],
      "name": "OwnershipTransferred",
      "type": "event"
    },
    {
      "anonymous": false,
      "inputs": [
        {
          "indexed": false,
          "internalType": "address",
          "name": "token",
          "type": "address"
        },
        {
          "indexed": false,
          "internalType": "address",
          "name": "beneficiary",
          "type": "address"
        },
        {
          "indexed": false,
          "internalType": "uint256",
          "name": "amount",
          "type": "uint256"
        }
      ],
      "name": "Withdrawn",
      "type": "event"
    },
    {
      "constant": true,
      "inputs": [
        {
          "internalType": "address",
          "name": "",
          "type": "address"
        },
        {
          "internalType": "address",
          "name": "",
          "type": "address"
        }
      ],
      "name": "balances",
      "outputs": [
        {
          "internalType": "uint256",
          "name": "",
          "type": "uint256"
        }
      ],
      "payable": false,
      "stateMutability": "view",
      "type": "function"
    },
    {
      "constant": true,
      "inputs": [
        {
          "internalType": "uint256",
          "name": "",
          "type": "uint256"
        }
      ],
      "name": "beneficiaries",
      "outputs": [
        {
          "internalType": "address",
          "name": "",
          "type": "address"
        }
      ],
      "payable": false,
      "stateMutability": "view",
      "type": "function"
    },
    {
      "constant": true,
      "inputs": [],
      "name": "owner",
      "outputs": [
        {
          "internalType": "address",
          "name": "",
          "type": "address"
        }
      ],
      "payable": false,
      "stateMutability": "view",
      "type": "function"
    },
    {
      "constant": true,
      "inputs": [
        {
          "internalType": "uint256",
          "name": "",
          "type": "uint256"
        }
      ],
      "name": "scheduleList",
      "outputs": [
        {
          "internalType": "uint256",
          "name": "",
          "type": "uint256"
        }
      ],
      "payable": false,
      "stateMutability": "view",
      "type": "function"
    },
    {
      "constant": true,
      "inputs": [
        {
          "internalType": "uint8",
          "name": "",
          "type": "uint8"
        }
      ],
      "name": "schedules",
      "outputs": [
        {
          "internalType": "uint256",
          "name": "",
          "type": "uint256"
        }
      ],
      "payable": false,
      "stateMutability": "view",
      "type": "function"
    },
    {
      "constant": false,
      "inputs": [
        {
          "internalType": "address",
          "name": "_newOwner",
          "type": "address"
        }
      ],
      "name": "transferOwnership",
      "outputs": [],
      "payable": false,
      "stateMutability": "nonpayable",
      "type": "function"
    },
    {
      "constant": true,
      "inputs": [
        {
          "internalType": "address",
          "name": "_beneficiary",
          "type": "address"
        }
      ],
      "name": "percentageOf",
      "outputs": [
        {
          "internalType": "uint256",
          "name": "",
          "type": "uint256"
        }
      ],
      "payable": false,
      "stateMutability": "view",
      "type": "function"
    },
    {
      "constant": false,
      "inputs": [
        {
          "internalType": "address",
          "name": "token",
          "type": "address"
        }
      ],
      "name": "distributePayment",
      "outputs": [],
      "payable": false,
      "stateMutability": "nonpayable",
      "type": "function"
    },
    {
      "constant": false,
      "inputs": [
        {
          "internalType": "address",
          "name": "token",
          "type": "address"
        }
      ],
      "name": "withdrawPayment",
      "outputs": [],
      "payable": false,
      "stateMutability": "nonpayable",
      "type": "function"
    }
  ],
  "bytecode": "0x608060405260008060146101000a81548160ff021916908360ff16021790555060008060156101000a81548160ff021916908360ff1602179055503480156200004757600080fd5b50604051620015ee380380620015ee833981810160405260608110156200006d57600080fd5b81019080805160405193929190846401000000008211156200008e57600080fd5b83820191506020820185811115620000a557600080fd5b8251866020820283011164010000000082111715620000c357600080fd5b8083526020830192505050908051906020019060200280838360005b83811015620000fc578082015181840152602081019050620000df565b50505050905001604052602001805160405193929190846401000000008211156200012657600080fd5b838201915060208201858111156200013d57600080fd5b82518660208202830111640100000000821117156200015b57600080fd5b8083526020830192505050908051906020019060200280838360005b838110156200019457808201518184015260208101905062000177565b5050505090500160405260200180516040519392919084640100000000821115620001be57600080fd5b83820191506020820185811115620001d557600080fd5b8251866020820283011164010000000082111715620001f357600080fd5b8083526020830192505050908051906020019060200280838360005b838110156200022c5780820151818401526020810190506200020f565b50505050905001604052505050336000806101000a81548173ffffffffffffffffffffffffffffffffffffffff021916908373ffffffffffffffffffffffffffffffffffffffff1602179055506200028c8383836200029560201b60201c565b5050506200055c565b8151835114620002f1576040517f08c379a000000000000000000000000000000000000000000000000000000000815260040180806020018281038252603b815260200180620015b3603b913960400191505060405180910390fd5b600080600090505b8451811015620004275760018582815181106200031257fe5b602002602001015190806001815401808255809150509060018203906000526020600020016000909192909190916101000a81548173ffffffffffffffffffffffffffffffffffffffff021916908373ffffffffffffffffffffffffffffffffffffffff160217905550508381815181106200038a57fe5b602002602001015160056000878481518110620003a357fe5b602002602001015173ffffffffffffffffffffffffffffffffffffffff1673ffffffffffffffffffffffffffffffffffffffff1681526020019081526020016000208190555062000417848281518110620003fa57fe5b6020026020010151836200054160201b62000e521790919060201c565b91508080600101915050620002f9565b50606481146200049f576040517f08c379a000000000000000000000000000000000000000000000000000000000815260040180806020018281038252601e8152602001807f50657263656e7461676573206d7573742073756d20757020746f20313030000081525060200191505060405180910390fd5b60008090505b82518160ff1610156200053a576002838260ff1681518110620004c457fe5b60200260200101519080600181540180825580915050906001820390600052602060002001600090919290919091505550828160ff16815181106200050557fe5b60200260200101514201600360008360ff1660ff168152602001908152602001600020819055508080600101915050620004a5565b5050505050565b60008183019050828110156200055657600080fd5b92915050565b611047806200056c6000396000f3fe608060405234801561001057600080fd5b50600436106100935760003560e01c8063b28a30ad11610066578063b28a30ad146101c2578063c23f001f14610207578063efeb5e581461027f578063f2fde38b146102ed578063fd7e10831461033157610093565b80638ac28d5a146100985780638da5cb5b146100dc5780639ae3a334146101265780639ec9bfbf1461016a575b600080fd5b6100da600480360360208110156100ae57600080fd5b81019080803573ffffffffffffffffffffffffffffffffffffffff169060200190929190505050610373565b005b6100e4610744565b604051808273ffffffffffffffffffffffffffffffffffffffff1673ffffffffffffffffffffffffffffffffffffffff16815260200191505060405180910390f35b6101686004803603602081101561013c57600080fd5b81019080803573ffffffffffffffffffffffffffffffffffffffff169060200190929190505050610769565b005b6101ac6004803603602081101561018057600080fd5b81019080803573ffffffffffffffffffffffffffffffffffffffff169060200190929190505050610bef565b6040518082815260200191505060405180910390f35b6101f1600480360360208110156101d857600080fd5b81019080803560ff169060200190929190505050610c38565b6040518082815260200191505060405180910390f35b6102696004803603604081101561021d57600080fd5b81019080803573ffffffffffffffffffffffffffffffffffffffff169060200190929190803573ffffffffffffffffffffffffffffffffffffffff169060200190929190505050610c50565b6040518082815260200191505060405180910390f35b6102ab6004803603602081101561029557600080fd5b8101908080359060200190929190505050610c75565b604051808273ffffffffffffffffffffffffffffffffffffffff1673ffffffffffffffffffffffffffffffffffffffff16815260200191505060405180910390f35b61032f6004803603602081101561030357600080fd5b81019080803573ffffffffffffffffffffffffffffffffffffffff169060200190929190505050610cb1565b005b61035d6004803603602081101561034757600080fd5b8101908080359060200190929190505050610e31565b6040518082815260200191505060405180910390f35b6000600460003373ffffffffffffffffffffffffffffffffffffffff1673ffffffffffffffffffffffffffffffffffffffff16815260200190815260200160002060008373ffffffffffffffffffffffffffffffffffffffff1673ffffffffffffffffffffffffffffffffffffffff1681526020019081526020016000205411610465576040517f08c379a00000000000000000000000000000000000000000000000000000000081526004018080602001828103825260168152602001807f4e6f2062616c616e636520746f2077697468647261770000000000000000000081525060200191505060405180910390fd5b8073ffffffffffffffffffffffffffffffffffffffff1663a9059cbb33600460003373ffffffffffffffffffffffffffffffffffffffff1673ffffffffffffffffffffffffffffffffffffffff16815260200190815260200160002060008573ffffffffffffffffffffffffffffffffffffffff1673ffffffffffffffffffffffffffffffffffffffff168152602001908152602001600020546040518363ffffffff1660e01b8152600401808373ffffffffffffffffffffffffffffffffffffffff1673ffffffffffffffffffffffffffffffffffffffff16815260200182815260200192505050602060405180830381600087803b15801561056857600080fd5b505af115801561057c573d6000803e3d6000fd5b505050506040513d602081101561059257600080fd5b8101908080519060200190929190505050507fd1c19fbcd4551a5edfb66d43d2e337c04837afda3482b42bdf569a8fccdae5fb8133600460003373ffffffffffffffffffffffffffffffffffffffff1673ffffffffffffffffffffffffffffffffffffffff16815260200190815260200160002060008573ffffffffffffffffffffffffffffffffffffffff1673ffffffffffffffffffffffffffffffffffffffff16815260200190815260200160002054604051808473ffffffffffffffffffffffffffffffffffffffff1673ffffffffffffffffffffffffffffffffffffffff1681526020018373ffffffffffffffffffffffffffffffffffffffff1673ffffffffffffffffffffffffffffffffffffffff168152602001828152602001935050505060405180910390a16000600460003373ffffffffffffffffffffffffffffffffffffffff1673ffffffffffffffffffffffffffffffffffffffff16815260200190815260200160002060008373ffffffffffffffffffffffffffffffffffffffff1673ffffffffffffffffffffffffffffffffffffffff1681526020019081526020016000208190555050565b6000809054906101000a900473ffffffffffffffffffffffffffffffffffffffff1681565b600360008060159054906101000a900460ff1660ff1660ff16815260200190815260200160002054421015610806576040517f08c379a00000000000000000000000000000000000000000000000000000000081526004018080602001828103825260198152602001807f5265616c656173652074696d65206e6f7420726561636865640000000000000081525060200191505060405180910390fd5b600080600090505b6001805490508110156108f0576108e1600460006001848154811061082f57fe5b9060005260206000200160009054906101000a900473ffffffffffffffffffffffffffffffffffffffff1673ffffffffffffffffffffffffffffffffffffffff1673ffffffffffffffffffffffffffffffffffffffff16815260200190815260200160002060008573ffffffffffffffffffffffffffffffffffffffff1673ffffffffffffffffffffffffffffffffffffffff1681526020019081526020016000205483610e5290919063ffffffff16565b9150808060010191505061080e565b5060008090505b600180549050811015610ad55760006109486001838154811061091657fe5b9060005260206000200160009054906101000a900473ffffffffffffffffffffffffffffffffffffffff168585610e6c565b9050610a1081600460006001868154811061095f57fe5b9060005260206000200160009054906101000a900473ffffffffffffffffffffffffffffffffffffffff1673ffffffffffffffffffffffffffffffffffffffff1673ffffffffffffffffffffffffffffffffffffffff16815260200190815260200160002060008773ffffffffffffffffffffffffffffffffffffffff1673ffffffffffffffffffffffffffffffffffffffff16815260200190815260200160002054610e5290919063ffffffff16565b6004600060018581548110610a2157fe5b9060005260206000200160009054906101000a900473ffffffffffffffffffffffffffffffffffffffff1673ffffffffffffffffffffffffffffffffffffffff1673ffffffffffffffffffffffffffffffffffffffff16815260200190815260200160002060008673ffffffffffffffffffffffffffffffffffffffff1673ffffffffffffffffffffffffffffffffffffffff168152602001908152602001600020819055505080806001019150506108f7565b506000601581819054906101000a900460ff168092919060010191906101000a81548160ff021916908360ff160217905550506000601481819054906101000a900460ff168092919060010191906101000a81548160ff021916908360ff160217905550507fad4a9acf26d8bba7a8cf1a41160d59be042ee554578e256c98d2ab74cdd435428233600060159054906101000a900460ff16604051808473ffffffffffffffffffffffffffffffffffffffff1673ffffffffffffffffffffffffffffffffffffffff1681526020018373ffffffffffffffffffffffffffffffffffffffff1673ffffffffffffffffffffffffffffffffffffffff1681526020018260ff168152602001935050505060405180910390a15050565b6000600560008373ffffffffffffffffffffffffffffffffffffffff1673ffffffffffffffffffffffffffffffffffffffff168152602001908152602001600020549050919050565b60036020528060005260406000206000915090505481565b6004602052816000526040600020602052806000526040600020600091509150505481565b60018181548110610c8257fe5b906000526020600020016000915054906101000a900473ffffffffffffffffffffffffffffffffffffffff1681565b6000809054906101000a900473ffffffffffffffffffffffffffffffffffffffff1673ffffffffffffffffffffffffffffffffffffffff163373ffffffffffffffffffffffffffffffffffffffff1614610d73576040517f08c379a00000000000000000000000000000000000000000000000000000000081526004018080602001828103825260168152602001807f6f6e6c79206f776e65722063616e20646f20746869730000000000000000000081525060200191505060405180910390fd5b806000806101000a81548173ffffffffffffffffffffffffffffffffffffffff021916908373ffffffffffffffffffffffffffffffffffffffff1602179055508073ffffffffffffffffffffffffffffffffffffffff166000809054906101000a900473ffffffffffffffffffffffffffffffffffffffff1673ffffffffffffffffffffffffffffffffffffffff167f8be0079c531659141344cd1fd0a4f28419497f9722a3daafe3b4186f6b6457e060405160405180910390a350565b60028181548110610e3e57fe5b906000526020600020016000915090505481565b6000818301905082811015610e6657600080fd5b92915050565b6000808373ffffffffffffffffffffffffffffffffffffffff166370a08231306040518263ffffffff1660e01b8152600401808273ffffffffffffffffffffffffffffffffffffffff1673ffffffffffffffffffffffffffffffffffffffff16815260200191505060206040518083038186803b158015610eec57600080fd5b505afa158015610f00573d6000803e3d6000fd5b505050506040513d6020811015610f1657600080fd5b8101908080519060200190929190505050905060008111610f9f576040517f08c379a000000000000000000000000000000000000000000000000000000000815260040180806020018281038252600a8152602001807f456d70747920706f6f6c0000000000000000000000000000000000000000000081525060200191505060405180910390fd5b6064600060149054906101000a900460ff1660ff166002805490500302838203600560008873ffffffffffffffffffffffffffffffffffffffff1673ffffffffffffffffffffffffffffffffffffffff16815260200190815260200160002054028161100757fe5b04915050939250505056fea265627a7a72315820a84c92e3313ccbc39b747f7fd484f5c1b9621d0ff864274031c3a5ede69fae0e64736f6c6343000510003242656e656669636961727920616e642070657263656e7461676520617272617973206d7573742068617665207468652073616d65206c656e677468",
  "source": "pragma solidity ^0.5.0;\r\n\r\ninterface IERC20 {\r\n    function transfer(address to, uint tokens) external returns (bool success);\r\n    function transferFrom(address from, address to, uint tokens) external returns (bool success);\r\n    function balanceOf(address tokenOwner) external view returns (uint balance);\r\n    function approve(address spender, uint tokens) external returns (bool success);\r\n    function allowance(address tokenOwner, address spender) external view returns (uint remaining);\r\n    function totalSupply() external view returns (uint);\r\n    event Transfer(address indexed from, address indexed to, uint tokens);\r\n    event Approval(address indexed tokenOwner, address indexed spender, uint tokens);\r\n}\r\n\r\nlibrary SafeMath {\r\n    function add(uint a, uint b) internal pure returns (uint c) {\r\n        c = a + b;\r\n        require(c >= a);\r\n    }\r\n\r\n    function sub(uint a, uint b) internal pure returns (uint c) {\r\n        require(b <= a);\r\n        c = a - b;\r\n    }\r\n\r\n    function mul(uint a, uint b) internal pure returns (uint c) {\r\n        c = a * b;\r\n        require(a == 0 || c / a == b);\r\n    }\r\n\r\n    function div(uint a, uint b) internal pure returns (uint c) {\r\n        require(b > 0);\r\n        c = a / b;\r\n    }\r\n}\r\n\r\ncontract Owned {\r\n    address public owner;\r\n\r\n    event OwnershipTransferred(address indexed _from, address indexed _to);\r\n\r\n    constructor() public {\r\n        owner = msg.sender;\r\n    }\r\n\r\n    modifier onlyOwner {\r\n        require(msg.sender == owner, 'only owner can do this');\r\n        _;\r\n    }\r\n\r\n    function transferOwnership(address _newOwner) public onlyOwner {\r\n        owner = _newOwner;\r\n        emit OwnershipTransferred(owner, _newOwner);\r\n    }\r\n}\r\n\r\ncontract TimeLock is Owned {\r\n    using SafeMath for uint;\r\n\r\n    uint8 private nextSubtract = 0;\r\n    uint8 private nextScheduleId = 0;\r\n\r\n    address[] public beneficiaries; //\r\n    uint[] public scheduleList; //\r\n\r\n    mapping(uint8 => uint) public schedules;\r\n    mapping(address => mapping(address => uint)) public balances;\r\n    mapping(address => uint) private percentages; //\r\n    \r\n    event NewVesting(address newVestingContract, uint indexed timeCreated);\r\n    event Distributed(address token, address executor, uint round);\r\n    event Withdrawn(address token, address beneficiary, uint amount);\r\n    \r\n    constructor(address[] memory _beneficiary, uint[] memory _percentages, uint[] memory _schedules) public {\r\n        _addVesting(_beneficiary, _percentages, _schedules);\r\n    }\r\n    \r\n    function _addVesting(address[] memory _beneficiary, uint[] memory _percentages, uint[] memory _schedules) internal {\r\n        require(_beneficiary.length == _percentages.length, 'Beneficiary and percentage arrays must have the same length');\r\n        uint totalPercentages;\r\n        for(uint i = 0; i < _beneficiary.length; i++) {\r\n            beneficiaries.push(_beneficiary[i]);\r\n            percentages[_beneficiary[i]] = _percentages[i];\r\n            totalPercentages = totalPercentages.add(_percentages[i]);\r\n        }\r\n        require(totalPercentages == 100, 'Percentages must sum up to 100');\r\n        for(uint8 i = 0; i < _schedules.length; i++) {\r\n            scheduleList.push(_schedules[i]);\r\n            schedules[i] = now + _schedules[i];\r\n        }\r\n    }\r\n    \r\n    function percentageOf(address _beneficiary) external view returns(uint){\r\n        return percentages[_beneficiary];\r\n    }\r\n    \r\n    function _calculatePayment(address _beneficiary, address token, uint totalBalances) internal view returns(uint){\r\n        uint balance = IERC20(token).balanceOf(address(this));\r\n        require(balance > 0, 'Empty pool');\r\n        return (percentages[_beneficiary] * (balance - totalBalances)) / ((scheduleList.length - nextSubtract) * 100);\r\n    }\r\n\r\n    function distributePayment(address token) external {\r\n        require(now >= schedules[nextScheduleId], 'Realease time not reached');\r\n        uint totalBalances;\r\n        for(uint i = 0; i < beneficiaries.length; i++) {\r\n            totalBalances = totalBalances.add(balances[beneficiaries[i]][token]);\r\n        } \r\n        for(uint i = 0; i < beneficiaries.length; i++){\r\n            uint payment = _calculatePayment(beneficiaries[i], token, totalBalances);\r\n            balances[beneficiaries[i]][token] = balances[beneficiaries[i]][token].add(payment);\r\n        }\r\n        nextScheduleId++; \r\n        nextSubtract++;\r\n        emit Distributed(token, msg.sender, nextScheduleId);\r\n    }\r\n    \r\n    function withdrawPayment(address token) external {\r\n        require(balances[msg.sender][token] > 0, 'No balance to withdraw'); \r\n        IERC20(token).transfer(msg.sender, balances[msg.sender][token]);\r\n        emit Withdrawn(token, msg.sender, balances[msg.sender][token]);\r\n        balances[msg.sender][token] = 0;\r\n    }\r\n}\r\n\r\ncontract TimeLockFactory is TimeLock {\r\n\r\n    address[] private vestings;\r\n\r\n    constructor(address[] memory _beneficiary, uint[] memory _percentages, uint[] memory _schedules) \r\n        TimeLock(_beneficiary, _percentages, _schedules) public {\r\n    }\r\n\r\n    function newVesting(address[] calldata _beneficiary, uint[] calldata _percentages, uint[] calldata _schedules) external onlyOwner {\r\n        address timeLockInstance = address(new TimeLock(_beneficiary, _percentages, _schedules));\r\n        vestings.push(address(timeLockInstance));\r\n        emit NewVesting(address(timeLockInstance), now);\r\n    }\r\n\r\n    function getVestings() external view returns (address[] memory) {\r\n        return vestings;\r\n    }\r\n}\r\n",
  "sourcePath": "C:\\Users\\LENOVO\\Desktop\\THE GRIND\\Blockchain Dev\\gitrepo\\TimeLock\\contracts\\TimeLock.sol",
  "compiler": {
    "name": "solc",
    "version": "0.5.16+commit.9c3226ce.Emscripten.clang"
  },
  "schemaVersion": "3.0.23",
  "updatedAt": "2020-08-30T20:25:35.852Z",
  "devdoc": {
    "methods": {}
  },
  "userdoc": {
    "methods": {}
  }
}